:020000041000EA
:1000000000B50C4B00219960082159610A4919601B
:100010000A490B480160002159600121996001BC27
:10002000002800D0004707480749086003C880F34C
:10003000088808470000001800031F00180200038A
:10004000F40000180001001008ED00E000000000BE
:1000500000000000000000000000000000000000A0
:100060000000000000000000000000000000000090
:100070000000000000000000000000000000000080
:100080000000000000000000000000000000000070
:100090000000000000000000000000000000000060
:1000A0000000000000000000000000000000000050
:1000B0000000000000000000000000000000000040
:1000C0000000000000000000000000000000000030
:1000D0000000000000000000000000000000000020
:1000E0000000000000000000000000000000000010
:1000F000000000000000000000000000A071FAAD48
:1001000000200420F7010010C3010010C5010010F9
:10011000C1010010C1010010C1010010C101001097
:10012000C1010010C1010010C1010010C701001081
:10013000C1010010C1010010C9010010CB01001065
:10014000CD010010CD010010CD010010CD01001037
:10015000CD010010CD010010CD01001029140020A8
:10016000711B0020CD010010CD0100100D1C0020DE
:10017000CD010010CD010010CD010010CD01001007
:10018000CD010010CD010010CD010010CD010010F7
:10019000CD010010CD010010CD010010CD010010E7
:1001A000CD010010CD010010CD010010CD010010D7
:1001B000CD010010CD010010CD010010CD010010C7
:1001C00000BE00BE00BE00BE00BE00BEEFF3058054
:1001D000103800BEF2EB8871E033051020340510B2
:1001E0003402001090A31AE700201F49086006C8D7
:1001F00081F3088810471D48006800282FD10DA4FE
:100200000ECC002902D000F012F8F9E71849194A7B
:10021000002000E001C19142FCD1174988471749ED
:1002200088471749884700BEFDE701C901C29A42C5
:10023000FBD3704720340510C0000020742F00202D
:10024000D462051000000420640204203865051003
:100250000010042090160420000000007047094898
:100260000AF0EAFA0047000008ED00E0000000D0C4
:10027000782F0020E82F0320AD940010193B0010C8
:100280006D9400105756000006005250ABB36053F7
:100290005C5F031006005250861C03026C5F031063
:1002A000060052505422A29D805F03100500525058
:1002B000DE65F468C86B0510F8B5C0460648074906
:1002C000091A8B10C90FC91810B5491003D0044B77
:1002D000002B00D0984710BD742F0020742F0020F1
:1002E00000000000054B10B5002B03D00449054861
:1002F00000E000BFFFF7E2FF10BDC04600000000B5
:1003000004050320D843031010B50400037B002B21
:100310000AD1026843689A420FD023685A1C2260AF
:100320001B78A36008232373237B013B2373A368FB
:10033000012018405B08A36010BD2EF0A9FDECE77A
:1003400010B50400037B172B0FD8026843689A424C
:1003500011D023685A1C22601978237BA268994027
:100360000A43A2600833237310BD044B044A0548B6
:100370008D2109F07FF82EF08BFDEAE7D8430310BA
:10038000A0C40310E843031070B504000D00202939
:1003900008DD0B4B0B4A0C489A2109F06BF8200042
:1003A000FFF7CEFF237BAB42F9DBEAB29B1A237344
:1003B000A2681000E840A060A840504070BDC04650
:1003C00024440310B0C40310E8430310002807D0EE
:1003D000012807D049000130400808180130704753
:1003E0000120FCE70220FAE7F0B5D6464F46464624
:1003F000C0B58146884617001E00002A08D1023089
:1004000000234A461380E0BCBA46B146A846F0BD78
:10041000012A05D1012303800B7883700430F2E7B1
:100420005B0001339BB203805B009A46851CB200DF
:10043000002128000BF078FB0023BB4213D25A00A6
:1004400042445478002C08DDB44206D8013CA40094
:100450002A5B01322A530133EFE7224B224A234819
:10046000362109F007F8012309E05A1E9200A91865
:100470004988A85A9A0002320918A9520133B34296
:10048000F3D300210FE0480043461B185B78013B83
:100490009B000233EA5A541CEC52524443461B5C04
:1004A000484683540131B942EDD3002200239A46D5
:1004B0000FE09100685A8146881C84465046181AFD
:1004C0008046604644462C524B446B52CA445B0003
:1004D0000132B242EDD3760001377F08F61976007B
:1004E000A81990E72C440310F0C4031054440310DF
:1004F000F8B5DE4657464E464546E0B581460F0004
:1005000090461E00002A09D1023000234A4613807B
:10051000F0BCBB46B246A946A046F8BD012A07D1A9
:1005200002800B784A7812029B1843800430EFE770
:10053000730001339BB29A460380851CB2000021F0
:1005400028000BF0F1FA0022424514D253009B1808
:10055000FB189C78002C08DDB44206D8013CA400AE
:100560002B5B01332B530132EEE7224B224A234807
:10057000702108F07FFF012309E05A1E9200A9189C
:100580004988A85A9A0002320918A9520133B34285
:10059000F3D3002114E04A005218BC18A378013BA1
:1005A000BA5C9346647824029B000233EA5A501CDA
:1005B000E85252445200200058444B4698520131B0
:1005C0004145E8D3002200239A460CE091006C5A82
:1005D000881C814650461F1A48462F521B196B52E1
:1005E000A2445B000132B242F0D37600464476006A
:1005F000A8198DE72C440310D8C4031054440310E9
:10060000F0B5DE4657464E464546E0B587B0050094
:100610008B4603920293FFF777FE00280BD15B46CF
:10062000981C00235A46138007B0F0BCBB46B24664
:10063000A946A046F0BD2800FFF766FE0700082186
:100640002800FFF7A1FE0600C4B208212800FFF72A
:100650009BFE0190C3B29C4221D004212800FFF7E9
:1006600093FE804604212800FFF78EFE82468045D7
:100670001BD04246801A0AF0D3F820231B1A994651
:10068000002F00D1AAE0FF243440002653460493F3
:1006900000955B460593CB46029B9A4674E0012386
:1006A0005A4613809470101DBEE7FF243440002684
:1006B000019F029B994606E05D4B5E4A5E48BD2164
:1006C00008F0D8FE0134FF233B40A34278D3280032
:1006D000FFF71AFE0028F5D07200531C10998B42C8
:1006E000EAD249468C544A464146D1540136E9E79C
:1006F0004F4B504A5048CC2108F0BCFEAB4213D3BC
:1007000059460098FFF740FE40447200531C534581
:10071000EED26119B954F854013601354B461B1B12
:10072000072BEBDD0723E9E7BA462CE059463800F2
:10073000FFF72AFE404484464B465A00531C10994A
:100740008B4208D26119504681546146C15401233D
:100750009C46E14410E0364B364A3748D92108F030
:1007600089FEB1463E00009F07E0AB420ADB38003D
:10077000FFF7CAFD0028D9D10135331B072BF4DD63
:100780000723F2E74E460834FF27019B1F40A7428C
:1007900012DB009B99461800FFF7B6FD051EE0D05E
:1007A0004846FFF7B1FD0028EDD000231D00B946F3
:1007B0005746109B9A46B1E7049B9A46059B9B4679
:1007C00051463000FFF702FE039B98422AD8534659
:1007D000320002995846FFF707FE25E7FF24344010
:1007E0000026019F06E0124B124A1348E82108F048
:1007F00041FE0134FF233B40A342E1DB2800FFF729
:1008000083FD0028F5D049462800FFF7BDFD404490
:100810007200531C10998B42E5D202998C54C85433
:100820000136E6E7054B034A0348F32108F022FEB0
:1008300090440310C0C4031054440310B044031088
:1008400010B50400037B002B0AD1026843689A426A
:100850000FD023685A1C22601B78A36008232373DF
:10086000237B013B2373A368012018405B08A3602E
:1008700010BD2EF00DFBECE710B50400037B172B29
:100880000FD8026843689A4211D023685A1C22602C
:100890001978237BA26899400A43A2600833237326
:1008A00010BD044B044A05488D2108F0E3FD2EF0ED
:1008B000EFFAEAE7D843031004C60310E843031035
:1008C00070B504000D00202908DD0B4B0B4A0C48C5
:1008D0009A2108F0CFFD2000FFF7CEFF237BAB422B
:1008E000F9DBEAB29B1A2373A2681000E840A0600B
:1008F000A840504070BDC0462444031014C60310E5
:10090000E8430310F0B5DE4657464E464546E0B58F
:1009100085B007000291039298460E9B9B460421E6
:10092000FFF7CEFF814604213800FFF7C9FF82465A
:100930004A46801A09F074FF20231B1A01930026EF
:10094000002526E001993800FFF7BAFF80195D45C0
:1009500015D24B461B01DBB26A00234341468B5440
:100960000132885401350134072C0ED83800FFF7C6
:1009700067FF0028F7D05645E4D13000E7E7184B71
:10098000184A19481A2108F075FD33004E46994659
:1009900001360F2E09D83800FFF752FF0028F7D094
:1009A00000244B46B1461E00DEE751462800FFF703
:1009B0000DFD039B98420CD853462A0041460298ED
:1009C000FFF712FD05B0F0BCBB46B246A946A046F3
:1009D000F0BD064B034A0448222108F04BFDC046F7
:1009E000E044031024C60310F8440310B04403107D
:1009F000F0B5DE4657464E464546E0B583B00400A6
:100A0000884615001F000C9B99460D9B9A46E422D0
:100A100000210BF089F8A560534600934B463A003D
:100A200029004046FFF76EFFA168431A5B10E3817F
:100A30001B041A0CDB0BBA1AC918534600934B4619
:100A40004046FFF7DDFDA168431A5B1023821B04BB
:100A50001A0CDB0BBA1AC918534600934B46404692
:100A6000FFF7CEFDA168431A5B1063821B041A0CCA
:100A7000DB0BBA1AC918534600934B464046FFF7A2
:100A8000BFFDA168431A5B10A3821B041A0CDB0B89
:100A9000BA1AC918534600934B464046FFF7B0FDBB
:100AA000A168431A5B10E3821B041A0CDB0BBA1A11
:100AB000C918534600934B464046FFF7A1FDA16875
:100AC000431A5B1023831B041A0CDB0BBA1AC918D8
:100AD000534600934B464046FFF792FDA168431AE8
:100AE0005B1063831B041A0CDB0BBA1AC91853463C
:100AF00000934B464046FFF783FDA568451B6D10EC
:100B0000ADB204214046FFF7DBFE8346022613E028
:100B100033000C335B00E318DD80A1686B007A1BA7
:100B2000C918534600934B464046FFF769FDA56838
:100B3000451B6D10ADB201365E45E9D9A583A168AC
:100B40006B007A1BC918534600934B464046FFF78B
:100B500057FDA568451B6D10002205E0511C530090
:100B6000E318AE3319700A00162AF7DD5200A218F6
:100B7000AE32FF23137020003E30102264210AF0B1
:100B8000D3FF20004E30102264210AF0CDFF200058
:100B90005E30102280210AF0C7FF20009E3001261F
:100BA0007642102231000AF0BFFF20008E30102262
:100BB00031000AF0B9FF2804000C03B0F0BCBB46BA
:100BC000B246A946A046F0BD10B50400037B002B39
:100BD0000AD1026843689A420FD023685A1C2260E7
:100BE0001B78A36008232373237B013B2373A36833
:100BF000012018405B08A36010BD2EF049F9ECE716
:100C000010B50400037B172B0FD8026843689A4283
:100C100011D023685A1C22601978237BA26899405E
:100C20000A43A2600833237310BD044B044A0548ED
:100C30008D2108F01FFC2EF02BF9EAE7D8430310B2
:100C400080C60310E843031070B504000D0020298E
:100C500008DD0B4B0B4A0C489A2108F00BFC2000D6
:100C6000FFF7CEFF237BAB42F9DBEAB29B1A23737B
:100C7000A2681000E840A060A840504070BDC04687
:100C80002444031090C60310E8430310F8B5CE4681
:100C9000474680B506000C0017000388012B2BD9AE
:100CA000137B072B2ED9BA68FF231340E15C3088F1
:100CB00040008046B044002934D0082926D80820B6
:100CC000401A83401800FF2303402A48C35C4800B1
:100CD000294C04196400A45B9C421DD93C7B641A16
:100CE0003C73CA40BA604000825B9B1A4246D05CAB
:100CF000C0BCB946B046F8BD204B214A2148E72187
:100D000008F0B8FB1000FFF77BFFCCE71E4B1C4A36
:100D10001C48F62108F0AEFB1C4B194A1948F82173
:100D200008F0A8FB120ABA603A7B083A3A73328894
:100D3000013AD10F8A18521091460E4AD45C2236DD
:100D4000082564003800FFF73FFF04433388A342BF
:100D50000BD804360135EDB24D45F2D30C4B084AA1
:100D60008E210848490008F085FB7388E01A434645
:100D7000185CBDE704C50310FFFFFF7F3445031077
:100D800040C60310E84303104445031050450310C8
:100D90007C450310F0B5D6464F464646C0B582B0F6
:100DA0008146884617001E000B9B9A461000FFF7ED
:100DB0000BFF002813D00C9B009353460A9A310076
:100DC0003800FFF71DFC04005146300033F09CFA58
:100DD0000A9B5B00F318A3420BD9002418E00C9B7C
:100DE000009353460A9A3100380033F09DFA04000C
:100DF000EAE70B4B0B4A0C48632108F03BFB4B46E0
:100E00001D193A0051463000FFF740FF28700134A9
:100E10004445F4D302B0E0BCBA46B146A846F0BDA2
:100E20000846031058C60310A845031070B50A4CB5
:100E300022680A4B51008918C9005B1862C862C356
:100E400062C862C30132D117490F521807231340F9
:100E50005B1A236070BDC046E83D0120EC3D0120D7
:100E60000B4B1B680B4A126893420ED05A00D218E3
:100E7000D000094A80180133D917490F5B1807229F
:100E800013405B1A024A136070470020FCE7C0461B
:100E9000AC3E0120E83D0120EC3D012070B505008D
:100EA0000024072C12D80A4A63001B199B0099588A
:100EB000280006F058FA002801D00134F1E7044B6D
:100EC0006200121992009B18187900E0042070BD8E
:100ED000B8C603100D4B1878002814D10C4B1B78A2
:100EE000002B00D1012070470120C0B20133032B39
:100EF000F4D80028F8D1074AD25C002A01D001308A
:100F0000F3E70020F1E700230020F0E7962F03200D
:100F1000652F0320BCF80220002200E00132032AE2
:100F20000BD8D300C318002119715B795BB2002B79
:100F3000F4DAD300C3185971F0E77047002300E0DA
:100F40000133032B09D8054A127852B29A42F7D0DE
:100F5000DA0082180021D171F2E77047522F032086
:100F6000002070470020704710B504F052FC074B7A
:100F70001A68D3171B041B0C9B181B141818044A5F
:100F8000002300210AF05EFC080010BD1C050320B0
:100F90008FC2F50870B582B02A4B18682A4B002121
:100FA000595609F075FC050006F01CF9274C22681B
:100FB000126890472268D2689047254A1078002826
:100FC0003AD1244B1B78002B04D1234A1268521BC0
:100FD000022A34DC204B1C68651B042D2DDC6D4679
:100FE0000822002128000AF09FFD184B1B685B684F
:100FF000210028009847184B1C680521200009F0A3
:1010000047FC164B00229A56154B89008918C900D7
:101010005A1841CD41C25B180122DA710D4B1B7881
:10102000002B05D10C4A136801331360012004E042
:10103000200004F025FBF5E7002002B070BD180089
:10104000FBE7C0466CE60220DA2F032034F90220C9
:10105000652F0320962F032074F90220522F0320BE
:101060009C1A032070B50F4B1C680F4B1B78002B8C
:1010700001D1200070BD0D4D286804F029FB2860C7
:10108000094B1B78002B0AD0094B1B78002B03D18E
:10109000064B1B68A342ECDA044B1C68E9E704F03A
:1010A00061FAF1E774F90220962F03207C0B0320EC
:1010B000652F032070B5134B1B78002B00D070BD3B
:1010C000FFF752FF104B0021595609F0E1FB0F4B7F
:1010D0001D68451B18600E4B1B68AB420CDCED1AFB
:1010E0000B4B00221A600024A542E8DDFFF752FFF7
:1010F0000028E4D00134F7E7054A5B1B13600025A4
:10110000F1E7C046BD2F0320DA2F032004F40220AC
:10111000C414032010B5FFF727FF044B00215956D4
:1011200009F0B6FB024B186010BDC046DA2F032051
:1011300004F40220F0B5C64600B504F05DFB594B3F
:101140000021595609F0A4FB0600574B1860574B75
:101150001B78002B10D0FFF71DFFFFF783FF050062
:10116000534B504A00215156186809F091FB2C1A34
:10117000002C0EDC01240CE0FFF79CFFEDE74C4B4C
:10118000484A00215156186809F082FB0019A8420C
:101190001DDCFFF79FFE002809D0454B414A002186
:1011A0005156186809F074FB001985425BDAFFF7A5
:1011B00081FFFFF757FF05003D4B3A4A002151568A
:1011C000186809F065FBA842D9DD00BED7E704F036
:1011D00013FB344B0021595609F05AFB801B04289D
:1011E0005DDC012004F01EFBD3E73800FFF7A6FE0C
:1011F00053E0304BA2005218D2009B18DB792E4AE4
:101200005354C01801310329F3DD2C4B1B78002BFC
:1012100001D001281EDD2A4B1B689B686001254A0E
:10122000801825499847224A136801331360380013
:10123000FFF772FE01361B4B002159568E420FDA22
:101240001B4B186809F024FB854200DA00BE002120
:101250000020D8E7194B00221A7004F083F9DAE76E
:10126000FFF728FF4446631E9846002C17D0FFF76F
:1012700031FE002813D00E4B0A4A0021515618683F
:1012800009F006FB052109F003FB0C004F01094B97
:10129000FF180A4B1B78002BA7D00026CBE780BC99
:1012A000B846F0BDDA2F032030050320BD2F032000
:1012B0006CE602209C1A0320BCF80220962F032023
:1012C00034F90220014B18607047C04634F90220FF
:1012D00070B50C001500002813D0FFF741FE002860
:1012E00012D12000FFF73EFE041E05D0074829005A
:1012F0000AF0BEFD012405E0054829000AF0B8FD0A
:1013000000E00400200070BD0024FBE7404703100C
:10131000004703100C4A002313600C4A1360036457
:101320000122C263436442600260094A137005E00F
:101330005A1E1A43D20F0749CA540133032BF7DD53
:101340000268054B1A7070471C0503207C0B0320B4
:10135000522F0320BCF80220DA2F0320054A002375
:101360001360054A1360054A1360054B01221A7089
:101370007047C0467C0B032074F902206CE6022003
:10138000962F0320F8B505240457002C1FDB6300BB
:10139000C518AE352D786DB2457145187E352E785D
:1013A000771C2F70002E24D145188E352D786DB204
:1013B000013512D145189E352D786DB2013512D107
:1013C00041180D009E352C708E310C701AE0124BB6
:1013D000124A1348532108F04DF8124B0F4A104897
:1013E000572108F047F8104B0C4A0D48582108F0D7
:1013F00041F841189E3100254D576D004519AE3515
:101400002C700C70C118AE31FF240C700133C01861
:10141000AE300270F8BDC046B44703107CC703105D
:10142000D04703100C4803103048031070B5431820
:101430007E331B7893421AD944187E34013B2370C3
:10144000002A20D143188E3300229A56002A14DB3A
:101450005300C318AE3300241C5743188E331C703E
:10146000002C4ADA41189E31FF230B7045E02E4BC9
:101470002E4A2F48712107F0FDFF2E4B2B4A2C4896
:10148000762107F0F7FF43188E331B785BB2002BF1
:1014900010DB44189E3400256557002D10DB012A0F
:1014A0001ADD5B00C318AE331B785BB2002B0DDB7B
:1014B000013AF4E7204B1D4A1D487E2107F0DAFF70
:1014C0001E4B1A4A1A487F2107F0D4FF1C4B174ABB
:1014D0001748832107F0CEFF5C000219AE32127864
:1014E00052B2002A15DB954219D05300C318AE330F
:1014F0001B785BB20419AE342370530005240457E3
:10150000C118AE310C7042710133C018AE30007892
:1015100070BD084B054A0648862107F0ABFF41180D
:101520009E310B70E1E7C0465448031064C70310B6
:10153000D04703107C48031090480310B4480310B0
:10154000D848031010B50400037B172B0FD802688E
:1015500043689A4211D023685A1C22601978237B71
:10156000A26899400A43A2600833237310BD044B5C
:10157000044A05488D2107F07DFF2DF089FCEAE73C
:10158000D843031044C70310E843031070B50400A8
:101590000D00202908DD0B4B0B4A0C489A2107F05F
:1015A00069FF2000FFF7CEFF237BAB42F9DBEAB2F5
:1015B0009B1A2373A2681000E840A060A840504026
:1015C00070BDC0462444031054C70310E843031001
:1015D00010B50400037B002B0AD1026843689A42CD
:1015E0000FD023685A1C22601B78A3600823237342
:1015F000237B013B2373A368012018405B08A36091
:1016000010BD2DF045FCECE7F8B5CE46474680B559
:1016100089460388002B1DD05A0090468044012B38
:101620001ED0013BDF0FFF187F10851C0026002411
:1016300064004846FFF7CCFF04432B88A34212D82E
:1016400004350136B742F3D80B4B0C4A0C48DF2166
:1016500007F010FF0B4B094A0948CA2107F00AFF9F
:101660004346187803E06B88E01A4346185CC0BC18
:10167000B946B046F8BDC0467C45031038C70310D4
:10168000E8430310E848031010B503F029F810BD33
:101690000120704710B503F023F810BD026B012341
:1016A0005A4093009B189B00C018806870474620E2
:1016B0007047000070B504000D000F49042232F09D
:1016C00091FC00280CD10C2002F0C4FF002806D0A9
:1016D00063684360083DAB4207D10834046070BDC5
:1016E00006480AF095FB0020F9E7054B054A064835
:1016F000064907F0BFFEC046F4480310FC4803103B
:10170000284903109CC7031050490310DB03000055
:10171000F0B5D6464F464646C0B582B00400056BCC
:1017200001235D4005634333984680440700343706
:10173000436B002B00D198E043461B79002B1CD053
:10174000E06C230044339B895B00C0183900FFF72D
:101750005BFF0609F6B2AB005B199B00E3181E6144
:101760000021996159610F2319000140072900D90F
:1017700063E18B00B649CB589F46C06C4646738BDD
:101780005B00C0183900FFF73FFF3071D8E7042134
:101790003800FFF7FBFE0190C6B208213800FFF7C2
:1017A000F5FE002E09D1AB005B199B00E318C022A7
:1017B0001A733F3202405A6138E0731EDBB2082BC5
:1017C0000ED8AB005B199B00E318B0221A73A14A34
:1017D000FF21019E0E40925D5A610140996125E012
:1017E0009D4B9E4A9E489F4907F044FEE06C2300B3
:1017F0004433DB895B00C0183900FFF705FFC307DE
:1018000039D50130C10F09184910230044339B1901
:101810003E331A785218D2B21A70AB005B199B0093
:10182000E318B0211973A93959619A61636B002BD0
:1018300000D108E1220044321379013BDBB213717D
:10184000002B00D001E10026E06C230044339B8B89
:101850005B00C0183900FFF7D7FE3618FF28F3D019
:10186000AB005B199B00E418A66002B0E0BCBA466E
:10187000B146A846F0BDC10F091849104942C4E756
:10188000E06C230044331B8A5B00C0183900FFF76B
:10189000BBFEC30718D50130C10F0918491022003B
:1018A000443292195E3213785B18DBB213709B01DD
:1018B000AA0052199200A218E0211173613919404F
:1018C0005161DB099361B1E7C10F09184910494221
:1018D000E5E7E06C230044335B8A5B00C018390005
:1018E000FFF792FEC30715D50130C10F0918491043
:1018F000230044339B196E331A785218D2B21A70EF
:10190000AB005B199B00E318B0211973AF39596123
:101910009A618BE7C10F091849104942E8E7E06C6A
:10192000092E2FD0230044339B8A5B00C018390056
:10193000FFF76AFE8146E06C230044331B8B5B009B
:10194000C0183900FFF760FE824681281FD080282A
:1019500028D022004432931919004E3108703E33CA
:10196000187090714A4631004046FFF70BFDAB00FE
:101970005B199B00E31890221A734A465A6152463B
:101980009A6153E723004433DB8A5B00CEE72300F0
:1019900044339A799B1919004E310A703E331A70FC
:1019A0009246DFE7230044339B194E331B789A4657
:1019B000D8E7230044339B197E331B78002B0ED0CD
:1019C000012B12D8002231004046FFF72FFDAB005B
:1019D0005B199B00E31880221A73586126E7224B9B
:1019E0001E4A1F48214907F045FDE06C0C332200D8
:1019F00044325B00D218D3885B00C0183900FFF76F
:101A000003FE0200DFE703213800FFF7BFFD0A30C5
:101A1000AB005B199B00E318B0221A730D4A125CED
:101A20005A6103E7AB005B199B00E318FF221A73AE
:101A3000D03A1A6100236363F8E60D4B074A084861
:101A40000C4907F017FD00260AE7002608E7C04604
:101A500018C70310C0C703108849031090C70310AC
:101A600050490310FB030000AC490310310400008F
:101A7000CC4903104904000010B5026B93009B1879
:101A80009B000833C3180B60FFF742FE012010BD16
:101A900030B5124CA5440400002343600363836007
:101AA00001680A684968426352188263C36301008F
:101AB00034310B7302002932FF32C03344308025A9
:101AC000AD00019502AD00955B00FEF791FF20008F
:101AD000FFF71EFE83239B009D4430BDF4FDFFFFF6
:101AE00070B506000C1E0DD18520C00002F0B2FDBD
:101AF000050063001B199B00F3180360FFF7C8FF84
:101B0000280070BD024B034A0348044907F0B2FCA9
:101B1000D4490310ACC7031050490310BE020000A3
:101B200080231B06C3600360014B836043607047E2
:101B3000FFFFFF7F83688B4205DD8160436893422E
:101B400006DD42607047C3688B42F7DAC160F5E793
:101B500003689342F6DA0260F4E70000F0B583B060
:101B6000040001914679002E05D0006832F02AFB6E
:101B7000237998422CD3A7792568280032F022FBDC
:101B8000874216D2EB5D019A93420FD00023A371D6
:101B90000023E371A579206832F014FB854219D344
:101BA0000723E356B3420EDA002014E00137A77191
:101BB000EEE70723E356B342ECDA084A0199D15421
:101BC0000133E371E6E70023E371A371012002E032
:101BD000002000E0002003B0F0BDC04684070320D1
:101BE00010B5030008005A79014909F0A3FF10BDA0
:101BF00084070320704770477047704730B589B03D
:101C00000500002406E00134044A23002021684630
:101C100001F0EEFFAC42F6D309B030BDF849031035
:101C2000704710B50B1482B25A430414634389B24F
:101C300080B24843614311441B04000C084418441B
:101C400010BD10B5FFF7EDFF10BD000010B50A0084
:101C5000C11743184B409B13D417111961408B4295
:101C600006DB504001D4054807E08020000604E070
:101C700001140004D31708F059FE10BDFFFFFF7FC9
:101C80008000044B1B681B581B021B0A024A106889
:101C9000C018704740F9022090230020034B1860C1
:101CA00001230370002343707047C04614240320AF
:101CB000F0B5DE4657464E464546E0B5B54B93B0C7
:101CC00009931B680590002B00D1D3E3059B59783D
:101CD0001A780B020B9206911A43012A00D8D0E021
:101CE000012317009A4604930E339B46AA4B1B68A8
:101CF0000D93AA4B0A93AA4B0C93AA4B0E93059AE9
:101D0000049B91469B0099444B465D789B78EA0979
:101D10005B001343984642460A9B52001B68012110
:101D2000D05E4B461E7853462B401B021E434B464B
:101D30000096DC78FFF7A4FF5246C378811D1A4055
:101D4000039252461A4209D0827882189279022A66
:101D500001D900F0FBFB0999920089586D06AA0E83
:101D600007920C9A457806781278029565190196C3
:101D70009E08954203DD121B0292002A7BDD0E9A1B
:101D80001278944209D2029D121B0892954272DD8C
:101D9000AA1A02920622944666448022039DDB0121
:101DA000AC4652001A40019B1A43837806336344C1
:101DB000C018A3001B19009C9B01A4460D9C634402
:101DC000A446634403930B2E00D95FE2764BB40024
:101DD0001B599F4608998C464B006344C0180299D2
:101DE00000293DD0039C0323A4468846A343013326
:101DF0009C444B004344511EC3188846069323005D
:101E000066461091D11E0B91911E43441191009290
:101E10000178009A2170022A15DD0B990A2900D851
:101E20001BE300270022611C851CA9425741002F9B
:101E30002ED1451C9D422BD2009A45780D70013160
:101E40009942FAD10092817841341970069941364D
:101E500041330330FF34FF36FF338842D8D1009A34
:101E6000079B002B00D0F4E0059B5A781B781702E3
:101E700006920B931F43049B013304939F4200DDA2
:101E80003DE713B0F0BCBB46B246A946A046F0BD44
:101E90000321E743A14300D1E6E2022245786570C1
:101EA0003A4200D1DDE20132A570144200D0DEE2F8
:101EB00045780132E5700192119A4578521A9708D7
:101EC0000F92BA002F022F43B846944642462F0481
:101ED0001743624631002D063D439719009A20C1F1
:101EE000B942FCD1019900920F9A61446245AAD08F
:101EF0004778109A4D1C67549542A4DA0231675511
:101F00009142A0DA457865549DE7089B002B00D1EB
:101F10001AE14C461E00039B00948C4604001800F6
:101F200000218146080015E040186178023401293B
:101F300006D98D1E6D086B00023001351818641922
:101F400053460B4201D001300134904200DDD7E20C
:101F500000D180E22178FF29E6D1484601344130A2
:101F6000013EFF30002EDBD1009B61469946030005
:101F70002000012464420894029C002C00D0EBE075
:101F8000079B002B00D176E74346142B00D072E765
:101F9000069BAAE258140320343D0120442B032061
:101FA0008D230020E52F0320D47B0410039E029C88
:101FB000002C00D154E7A446A30063449B01F3180E
:101FC000019353109C4653461340984663465D0068
:101FD0004B46069303006046AC46454690461C00BF
:101FE00037001A18002800D139E281460800110094
:101FF00000955A465D4623781A401D4201D0825C06
:102000003A701B0901D0C35C7B7001340237A142D6
:10201000EFD10A001300624601004846009DB41843
:10202000002D0AD05F461A781740B9465F4617421E
:1020300002D04A468A5C227001334136019AFF364B
:102040009642CCD1069B42469946079B002B00D175
:102050000AE74B4659789B78C9095B000B43143B50
:1020600059424B41D21A029B002B00D138E2079F04
:102070005743002F00DCF7E6032138000223884392
:10208000511E8B429B4102995B4201938B005E186B
:10209000039B01009C460325814601310230B601B5
:1020A000029103906644D919AC4698181D007B1E16
:1020B000069313004B440F93029BBC089846904430
:1020C00043460793039BA4009846904443460B93D2
:1020D000069B009798464346062B2ED92B00674651
:1020E00003431F4229D1019F0023002F25D0EF5821
:1020F000C7500433A342FAD1009FBC4211D04B46D3
:102100000F9FEB5CEB55009F029B9F4209DDEB5C50
:10211000079FEB55009F039B9F4202DDEB5C0B9FEB
:10212000EB55413541314130FF35FF31FF30AE4293
:1021300000D199E64346062BD0D82B001F789F5438
:1021400001338B42FAD1ECE701235B420893029CF6
:10215000039B002C00D113E72500AC46A4009D187A
:102160006444AC4606924D466246A4011C19019592
:1021700000921D0002009946A0461378FF2B00D163
:102180005AE15478ED180232012C17DD681E160052
:102190009446012302005846377801363840085CDF
:1021A0003F09D054C85DE85402339C42F3DC6246D8
:1021B000A31E5B080133D2185B00ED18534623427F
:1021C00006D05846137801320340CB5C2B700135A2
:1021D000009B9D4200D999E1CFD110004B46444667
:1021E000009A41334132FF32FF330092A342C0D103
:1021F000019B069A994633E6029C002C00D12FE6FB
:10220000A446A3005410A046039C6344A4465B016B
:1022100043445B006344019343465B009C46534642
:10222000134000934B4606931300260042469846FF
:1022300063466644050034009146F31A002A23D011
:102240005A462F7801353A408A5C3F091A70CA5DB8
:102250005A700233B342F3D14A468018009B002BD8
:1022600005D05D46037801302B40CB5C23704136AE
:10227000019BFF36B34200D1E4E66346050034001B
:102280009146F31A002ADBD11C00E7E73300042251
:10229000063B934300D1EEE57421AF4BAF4AB04803
:1022A000FF3107F0E7F8029B002B00D1D8E59C46F0
:1022B000039E9C006444B4460700A40135006444B6
:1022C000B6189446A0462A003B000C001978FF2956
:1022D00000D1BAE0521859780233002908D0002002
:1022E0001F5CE75D175401308142F9DC5B1852181E
:1022F000964200D211E1E9D1210062461F00444616
:1023000041354136FF35FF36A542DAD1A8E5029BBB
:10231000002B00D1A4E51D000323A846039E9C4684
:10232000AB004344B0469B0198444D46B3180F920E
:1023300037003F2442460B9500933E009146069796
:102340000278FF2A7DD04778831C9846B618032F61
:1023500070DD1D0063463200981B01966E78AB78E5
:1023600036021B0433432E780335334326001E40C8
:102370008E5D16709E0926408E5D56701E0B26409F
:102380008E5D9B0C9670CB5CD37004328318BB427D
:10239000E4DB3A1F920801325000019E801892003F
:1023A0004044B618654663463D403B4219D0220082
:1023B00007783A408A5C3270012D31D04278BF09EB
:1023C00092003A4327001740CF5D7770022D2ED040
:1023D000857892092D01154325404A5D0330B2707E
:1023E0000336009B9E4220D89E42A9D14A46069FB2
:1023F000009B41374133FF33FF37009397429CD115
:102400000B9B0F9A99462BE5089C531CA4465B1026
:102410006343C018A3006344039C9B01E618C6E510
:10242000009B013601309E42DED9A82176E00230C1
:102430000236D6E71800B5E710004B464446013097
:10244000CEE64A46069F0130D2E71F0021006246D1
:102450004446013754E7484681E5611CECE434000A
:10246000DEE50222019227E50122019224E5032202
:10247000019221E53B4A883315685B000121E85E43
:10248000FFF7FEFB00284FD00124C3781C4251D037
:102490008378002B54D0B523099E06305B00306052
:1024A0000121E85EFFF7ECFB00283DD0C3781C4219
:1024B00040D08378002B43D0A72306305B007060A8
:1024C0000121E85EFFF7DCFB00282DD0C3781C4219
:1024D00030D08378002B33D00630B060FFF7F6FBA6
:1024E000059B1A785B780B9206931F020B9B1F4388
:1024F000049B013304939F4201DDFFF700FCC0E41D
:10250000F021164A1648184B06F0B4FF0621174B67
:10251000124A1348FF3106F0ADFFB021134B0F4AAA
:102520000F48490006F0A6FFBA210C4A0C48104B90
:1025300006F0A0FFBB21094A09480E4B06F09AFF9E
:10254000BC21064A06480C4B06F094FFC721034AFB
:1025500003480A4B06F08EFFD84A0310147C04107F
:10256000184A0310442B0320C44A0310CC4A03101A
:10257000104A0310504A0310744A0310904A031083
:10258000F0B5C64600B5414C246855002C5FA40048
:102590003F4D2D682D592D022D0A3E4C246864199B
:1025A00004256557491B05256557401B11D425781F
:1025B000E678F60180277F003E4035432D18A0269F
:1025C0007600B54205DC002903DB64786418C82C6A
:1025D00000DD00BE304C2468002C4FD02678657892
:1025E0002D023543A778E67836023E43B54242D8FD
:1025F000AD006419012637001740FD01A846657833
:10260000AC467F2567463D4047463D4365705208CE
:10261000A270214C2268177855782D023D43AD00F9
:1026200052191070000A30405578B5432843507055
:1026300020680578427812022A4392008018C170FF
:10264000216808784A7812020243920089183F22D2
:102650001A4052004B787E20834313434B7022680C
:10266000117853781B020B43013399B28130034038
:102670001370090A517080BCB846F0BD074B084A78
:10268000CC210848FF3106F0F5FEC046442B03205C
:1026900040F902209023002014240320104B031043
:1026A000047C0410184A031010B50023FFF768FFDC
:1026B00010BDC04610B5FFF7F7FF10BD10B5FFF70E
:1026C0005FFF10BD7047C046024B034A12681A6094
:1026D0007047C046343D01204031002070B50500F0
:1026E00000F0A8F8041E25D0154B1B6819795A79FB
:1026F00012020A43997909041143DA7912060A434E
:1027000010490A60187A597A09020143987A00043C
:102710000843D97A0906014359180B48016018008B
:102720000C300A4908600A3292009B18084A13606C
:10273000200070BD0748290009F09AFBF8E7C04661
:1027400090230020FC04032040F90220482B0320A2
:102750003CF902201C4B0310F0B5C64600B580467C
:10276000134B1B689A7DDE7D3602164300270AE074
:10277000104B1B685B190A20185E80BCB846F0BD80
:102780002600B74211D0BB19DC0FE41864106500B5
:102790002D19AD00074B19684919404604F0E3FDB7
:1027A0000028E5D0ECDB671CEBE701204042E4E7C2
:1027B000482B03203CF9022010B5FFF7CDFF00287D
:1027C00000DB10BD00BEFCE7084B1B68984200D33D
:1027D00000BE8000064B1B681B1858681B68C01A97
:1027E0000002000A9B0FC01A7047C046FC04032079
:1027F00040F9022010B5FFF7DFFF8000044B1B6893
:102800001B581B021B0A034A1068C01810BDC046A3
:1028100040F9022090230020024B1B68984200D30D
:1028200000BE7047FC04032010B5FFF7C5FFFFF79B
:10283000F3FF10BD70B5050000240020002C00D06F
:1028400070BD044B1B68280098470028F8D101345C
:10285000F4E7C046287C0410704770B505001000EE
:102860001C006B685918220009F064F9200070BD43
:1028700010B50B4B1B78492B0DD10A4B1B78572BEE
:1028800009D1094B1B78482B05D1084B1B78442BE9
:1028900001D1074810BD0748014906F083FEC04634
:1028A00000000610010006100200061003000610CA
:1028B000347C0410304B031010B500280FD0094AA7
:1028C000094BC318934204D8830702D18003000C3C
:1028D00010BD064B064A0748CC2106F0CBFD002070
:1028E000F6E7C046FCFF0300FCFFFFDF5C4B031074
:1028F000747C0410884B031010B58023DB029942CE
:1029000007DA0331CA17032313405B189B10838037
:1029100010BD034B034A0448592106F0ABFDC046E5
:10292000C04B0310607C0410D04B0310013870477B
:1029300070B582B001A801F0EBFB04000D4B1860EC
:10294000019D0560060010363000FFF7B5FFE080FE
:10295000A0800123A372E660201DFFF7ADFF208257
:1029600060820423A375290010393000FFF7C4FFEB
:1029700002B070BD70F9022070B50600083E042355
:10298000B3717488002C13D080231B059C466444CB
:10299000A400A379042B0DD03388002B2DD08022E6
:1029A0001205944663449C00A379042B27D070BD84
:1029B0000024EEE7A18889000838050083889B0081
:1029C000C9182000FFF798FF2B882380002B0FD019
:1029D00080221205944663449D002000FFF76CFF9F
:1029E0006880164B1B68DA68964203D02600D3E74E
:1029F0000025F2E7DC602600CEE70024D4E7A188BA
:102A00008900B3889B00C9183000FFF775FF238841
:102A10003380002B0FD080221205944663449D0022
:102A20003000FFF749FF6880044B1B68DA68A24258
:102A3000BDD1DE60BBE70025F2E7C04670F9022099
:102A4000F8B5CE46474680B5884603300323984301
:102A500007000533994681444E465B4B1B68DB6893
:102A60005888002812D080221205944660448000C5
:102A70008279042A00D018004588002D08D08023D0
:102A80001B059C466544AD00040031E00020EFE7E3
:102A90000025F9E74D4806F085FD6388002B18D026
:102AA00080221205944663449C000830FFF764FFBF
:102AB0002488002C0FD080231B059C466444A4006E
:102AC0002088002828D080231B059C466044800075
:102AD0000BE00024E9E70024F2E7008800281DD07D
:102AE00080231B059C4660448000A379042B17D0EB
:102AF000A842CFD08379042BEFD0062BCDD8008805
:102B0000002806D080231B059C46604480000400FA
:102B1000EBE700240020E8E70020E6E70020E4E7F8
:102B2000A1888900B142E3DB4B46C91A402918DC71
:102B30004346062B37DCA371200008302388224A45
:102B40001268002B36D0802109058C4663449B0017
:102B5000D360032F30D90023A360C0BCB946B04670
:102B6000F8BDE5182800FFF7C7FE0423AB7120006D
:102B7000FFF7A2FE688023882B80002B11D08022D3
:102B80001205944663449E002800FFF795FE70806E
:102B90002800FFF791FE208049462000FFF7ACFE99
:102BA000C6E70026F0E70A4B0A4AC6210A48490050
:102BB00006F060FC0023CBE7084B064AA821064834
:102BC000FF3106F057FCC04670F90220084C031094
:102BD000184C0310507C0410D04B03102C4C0310E5
:102BE00070B505000E00144B1B689888002805D0AE
:102BF00080231B059C466044800004E0002002E026
:102C000000240DE020000C4B1B680433834212D0DB
:102C10000388002BF4D080221205944663449C0064
:102C20008379042BEED0AB42ECDBB342EADC083014
:102C3000FFF7A2FEE6E770BD70F9022070470000C2
:102C400030B50F4B1D68002D17D00E4B1868013D95
:102C50000B4B1D60002306E0591C0A4A8C00A45847
:102C60009B009C500B009D42F6DC074A1368591CE0
:102C70001160064A9B00985030BD0020FCE7C0461A
:102C8000602203201822032014220320CC210320D9
:102C900070B5154B09221A60144B00221A600025EA
:102CA0001FE00921280007F0F3FD114C6B005A19B1
:102CB000D20011550F4A880080585B19DB00E418D8
:102CC0006070093189008B58A3700921280007F032
:102CD000DFFD0002A08100232361074BAA00D4502E
:102CE0000135082DDDDD70BD602203201422032094
:102CF0006422032084820410182203208B68092B8D
:102D000007D00F2B07D09800C0188000034BC018C5
:102D100070470F23F7E70923F5E7C0466C31012020
:102D200070B543790169C4780A78D2070AD42201C0
:102D30008A18957CD27C12022A43120412149B1822
:102D400000E00C33002BFCDB00E00C3B5F2BFCDCD9
:102D500002335B01426912699A18002C03D08B7808
:102D60005B08403BD218002A1DDB8E235B009A4291
:102D70001ADB1D3AFF3A1400C0214900100007F089
:102D800087FD0D00C0214900200007F081FD0300F0
:102D9000062800D907231D35FF35054A6D00A85ABE
:102DA0009B02184303E00022014B5200D05A70BD31
:102DB0004C7D041010B50C00FFF7A0FFE268D300B3
:102DC0009B189B00024A1268D318036010BDC046CE
:102DD0006CF90220084B1B680360084B1B684360BA
:102DE00064228260642B01DD642343603023C3606E
:102DF000002303617047C0466CF902201C3C01208F
:102E0000044B1878002804D0034B1868431E9841DF
:102E1000C0B27047942F0320F804032010B50400BB
:102E20000068FEF73BFC0200074B186800230021F6
:102E300008F008FD054B1A68002307F08FFD044ACF
:102E400023000CF083FD10BD501C03203C1B03200D
:102E5000C935001070B5194B1B78DA071CD4174A16
:102E600002218B431370164B164A12681A60164BD8
:102E7000164A12681A600024124B1B68A34210D92C
:102E8000A500134E33685859FEF702FE306840190A
:102E9000FFF7C4FF0134EFE7084A02210B43137028
:102EA0000BE0002407E0A3001B199800094BC01891
:102EB000FFF790FF01340F2CF5D970BDAE2F032022
:102EC0009C0D0320F8040320281803201C3C01203B
:102ED000F01B03206C31012010B5030000201856B0
:102EE000B0309A89D989090A10430CF0AEFC10BDA4
:102EF000F8B505001A4B1B68834205DC184B00220D
:102F00001A60184B1A60F8BD174B8200D658300073
:102F1000FFF7E2FF002373617371F3789C46104B57
:102F20001F68013F1F602B0006E0591C0E4A8800F5
:102F300084589B009C500B009F42F6DC094A1368A2
:102F4000591C1160094A9B009E506346002BDAD041
:102F5000074B1B78012BD6D82800FFF7C9FFD2E713
:102F60001422032060220320CC21032018220320F6
:102F70009623002070B50C00FFF7C0FE0500E66840
:102F8000002400E00134094B1B68A3420DDD084B0F
:102F9000A200D3585A69AA42F4D11B79B342F1D1A5
:102FA0002000FFF7A5FF013CECE770BD14220320D1
:102FB000CC21032010B50020002200E00132094B93
:102FC0001B6893420ADD084B9100C9584969840087
:102FD000E3585B699942F1D91000EFE7FFF788FFEA
:102FE00010BDC04614220320CC21032070B505007B
:102FF000802424020020002300E00133094A1268E3
:10300000033A9A420BDD084A99008A58917AA14204
:10301000F3DA5269AA42F0D30C001800EDE7FFF78B
:1030200067FF70BD14220320CC21032010B50020BF
:10303000002301E0180001330A4A12689A420EDDAB
:10304000094A99008A58D1780029F3D15169064A72
:103050008400A25852699142EDD31800EBE7FFF7C4
:1030600047FF10BD14220320CC21032070B50500BA
:10307000002400E00134084B1B68A3420ADD074B23
:10308000A200D3585B69AB42F4D12000FFF730FFB8
:10309000013CEFE770BDC04614220320CC21032081
:1030A00070B504000D000979002A1CD03F2211439D
:1030B000C9B21970200040300CF0C7FB29782000FD
:1030C00020300CF0C2FB6978200060300CF0BDFBB2
:1030D000A978200080300CF0B8FBE9782000E030BF
:1030E0000CF0B3FB70BD6A791143E2E7F8B5040058
:1030F00003698B422DD02161E27012018D18AE7AE6
:1031000002202056A289E31D29000B311043012221
:10311000FFF7C6FF01202056A789230008330122AC
:103120003240291D3843FFF7BBFF00202056C03036
:10313000A389A97A627A114318430CF086FB2A7B93
:10314000697B0F230B4012099B181E22D31AA3720E
:10315000F8BDC3789342CED1FAE770B50400FFF70B
:10316000DFFD0500E389834200D170BD00202056B9
:10317000A030A389FF21294018430CF066FB0020F2
:103180002056B030A389290A2022114318430CF09D
:103190005CFBE581E9E70000F0B5A5B00C00FFF7A6
:1031A000ADFD07002369403B036100240026002594
:1031B00009E0FFF7D2FF174BAA00D158B20012ABBB
:1031C000D15001360135144B1B68AB420ADD114B5F
:1031D000AA00D0584369BB42EBD0A3006A4698507E
:1031E0000134EFE7002305E09A0069465058094989
:1031F00050500133A342F7D3002307E01919980078
:1032000012AA8058034A890088500133B342F5D38B
:1032100025B0F0BDCC21032014220320F8B5040012
:10322000FF2915D881710569C67843695B68234811
:10323000C35C01335B00FF220A40825C53435B0A9C
:103240003F27FF1AE1793F230B40BB4206D1F8BD6F
:103250001B4B1C4A1C481D4906F00CF93F2399439F
:103260003943C9B2E171022020564030A389184386
:103270000CF0EBFA3301EB189B7ADB07E7D533014F
:10328000EB185B7A3F2BE2D09F4200D81F00227AD6
:103290003F23110099430B003B439A42D7D023723E
:1032A000012020564030A2893601AD19297A3F24E9
:1032B000A143194310430CF0C8FAC8E7CC7C0410B2
:1032C0004C4C0310847C04105C4C0310450200003D
:1032D000F0B583B007000E0015000193124B1B7868
:1032E000002B00D10025FFF7ABFC041E17D047616F
:1032F000089B03713378DB0713D5F3784371FB68C0
:1033000063722A0031002000FFF7F0FE09992000C7
:10331000FFF784FF0023E3812000FFF71EFF03B0C7
:10332000F0BD019B4371EAE796230020F0B5CE463D
:10333000474680B583B00C00CE680F69002F2DD0B2
:10334000FFF7DCFC0500A368092B2AD00468B0460F
:10335000227863781B02134304221A409146424BA1
:103360001B78002B37D0012B52D0404B1B68002B11
:1033700000D175E001970096434600222100280005
:10338000FFF7A6FF4B46002B34D00197009643462B
:10339000012221002800FFF79BFF2BE0FFF7EAFD49
:1033A00028E03300233B2E2B24D8314B1C68F3003C
:1033B0009B199B002F4A94466344E4182E490B68DE
:1033C0002E4AD65401330F2213400B603C239846FB
:1033D000BEE7FFF7EFFD2A4B1B68082BF9D84B46D9
:1033E000002B0CD1019700964346002221002800B3
:1033F000FFF76EFF03B0C0BCB946B046F0BD019701
:1034000000964346012221002800FFF761FFE9E70B
:103410001B4B1B68092B0FD0194B1B68082B0FD0B7
:103420004B46002B13D10197009643460022210002
:103430002800FFF74DFFDDE72800FFF7D7FDEBE79A
:103440004B46002BEFD02800FFF7D0FDE8E70197AF
:1034500000964346012221002800FFF739FFE2E7EA
:10346000FFF7E4FD86E7C046962300206022032094
:103470009807032014FBFFFFF4F30220E4F302207B
:103480001422032070B505008160104B1B688B422D
:1034900000D30B00002A04D00D4A12689A4200D2D1
:1034A00013006B60002400E00134082C0DD8094B98
:1034B00062001219D2009B185B69AB42F4D1054837
:1034C00080188179FFF7AAFEEEE770BD1C3C012051
:1034D000281803206422032010B50C00FFF70EFC0F
:1034E000E3682169072B04D07B2B05D1FFF7BEFDD4
:1034F00002E00122FFF7C6FF10BD000070B5050015
:103500000F4B1B6883421AD00D4B1860002409E052
:10351000A000001980000B4BC01800222900FFF703
:10352000B1FF01340F2C0AD8F2D00648A3001B19B2
:103530009B00C01881680022FFF7A4FFF1E770BD6F
:103540001C3C01206C31012070B50400034D28683B
:1035500021000CF02DFA2C6070BDC046501C0320D9
:1035600010B50C69CA688B68512B00D010BD032AB6
:10357000FCD12078000463781B021843A378184319
:10358000FFF7E2FFF2E710B50B79C02B16D008D891
:10359000902B0DD0B02B0ED0802B01D1FFF7EAFC81
:1035A00010BDE02B0DD0FF2BFAD1FFF7D9FFF7E7C5
:1035B000FFF7BCFEF4E7FFF78FFFF1E7FFF7FAFB39
:1035C000EEE7FFF7E9FDEBE710B582B00400006815
:1035D00001A9FEF751FA002801D102B010BD0199EE
:1035E0002000FFF7D0FF019B1A79FF2A02D19B68C8
:1035F0002F2B03D02000FFF711FCEEE7084A1368D9
:10360000013B1360002BE8D1064B1B78002BE4D064
:10361000054A0023054800210CF098F9DDE7C04673
:103620009C0D0320C12F0320552E0010881300008D
:1036300010B5174B1B78002B00D110BD0CF09AF978
:103640000CF08EF9002408E0A3001B199800114B20
:10365000C0180021FFF70AFD01340F2CF4D9002413
:1036600006E00D4BA2001B689858FEF713F80134D2
:103670000A4B1B68A342F4D8074C206801F030F8CD
:1036800000232360054A13600CF07EF9D5E7C0469D
:10369000942F03206C310120F01B0320F804032039
:1036A00010B5044B1B78002B00D110BD00200CF08E
:1036B00075F9FAE7942F032010B5104B1B78002BF7
:1036C00000D110BD01200CF069F9002400E00134A4
:1036D000082CF6D80A4B62001219D1005B185B69FE
:1036E000002BF4D0064B5B181A69064B1B689A42F4
:1036F000EDD2034BC818FFF7EFFBE8E7942F032048
:10370000642203209807032010B5054B1C688B002A
:10371000E418FEF7E5F920602000FFF77FFB10BDFD
:10372000F01B032070B505000C001E4B1B78002B0E
:1037300037D0002835D0FDF7ABFF800000F08AFFBE
:10374000194B18602800FDF7A3FF184B1860184BA1
:103750001860184B1C702800FDF7A9FF164B186065
:10376000164B174A1A60174B174A12681A60002442
:1037700004E021002800FFF7C7FF01340B4B1B6852
:10378000A342F6D8002407E0A000001980000F4BE8
:10379000C018FFF71FFB01340F2CF5D900200CF0E7
:1037A000FDF870BD942F0320F01B0320F8040320C4
:1037B0009C0D0320C12F03203C1B0320501C032021
:1037C00020A10700281803201C3C01206C31012097
:1037D00010B5044B1B78002B03D0002801D0FDF757
:1037E00053FF10BD942F032010B5044B1B78002B02
:1037F00002D0FDF75FFF10BD0020FCE7942F0320EF
:1038000010B5084B1B78002B00D110BDFFF710FF3F
:103810000BF0F2FF0448FFF707F8024B00221A7082
:10382000F3E7C046942F0320984C031010B50B48C3
:103830000121FEF7DFFF02000832094B1A60094B35
:10384000C218094B1A60094BC218094B1A60094B80
:103850009C466044084B1860012010BD984C031032
:103860006CF902200812000098070320A418000039
:1038700068F90220A42800009C07032010B50E4B15
:103880000020185E0BF0AAFF00200BF0FFFFFFF7EF
:10389000CDFF041E0CD0FFF7FBF9084B00221A6085
:1038A000074B1A60074B01321A700124200010BD2B
:1038B0000BF0A2FFFAE7C04694230020F01B032080
:1038C000F8040320942F0320014B18707047C04662
:1038D0009623002010B5044B9B689847002802D01F
:1038E000024B014A1A6010BDD8230020A017032004
:1038F00010B5044B9B689847002802D0024B014A40
:103900001A6010BD947C0410D80403200B68002BAF
:1039100004DBFE2B04DDFE230B6001E000230B60C3
:103920000368002B04DB7F2B04DD7F23036001E0B1
:10393000002303607047000010B5054B1B78002B77
:1039400000D010BDFFF7C6FFFFF7D2FFF9E7C04672
:10395000B52F032010B5044B1B68002B02D01B6948
:10396000984710BD0020FCE7A017032010B5074BB7
:103970001B68002B01D05B699847054B1B68002B27
:1039800003D01B6B002B00D0984710BDA01703205D
:10399000D804032010B582B0040001910092084BB6
:1039A0001B68002B0AD0694601A8FFF7AFFF044B44
:1039B0001B689B69009A01992000984702B010BDCE
:1039C000A017032070B584B004000D000392029389
:1039D0000A4B1B68002B0FD002A903A8FFF796FF24
:1039E000064B1B68DE69029B039A08990091290027
:1039F0002000B04704B070BD0020FBE7A0170320F3
:103A000010B5034B1B68002B01D01B6A984710BDF3
:103A1000A017032010B5044B1B68002B02D05B6A73
:103A2000984710BD0020FCE7A017032010B5044BF9
:103A30001B68002B03D09B6A002B00D0984710BD59
:103A4000A01703207047000010B5034B1B68002B24
:103A500001D01B69984710BDD804032010B5034B53
:103A60001B68002B01D05B69984710BDD804032068
:103A700010B5034B1B68002B01D09B69984710BD04
:103A8000D804032010B50300034A1068002802D0B0
:103A9000C2691800904710BDD804032010B5034B2D
:103AA0001B68002B01D01B6A984710BDD804032067
:103AB00010B5034B1B68002B01D05B6A984710BD03
:103AC000D804032010B5034B1B68002B01D09B6A60
:103AD000984710BDD80403207047000070B584B02B
:103AE00006000C0001AB02AA03A905F06BFC051E41
:103AF00004D1002C09D1200004B070BD019A0299B4
:103B0000039805F023FC2C00F5E70248310005F08E
:103B100049FDC046A04C031000B583B008F0B4F9CD
:103B2000FA20400004F087FC0F2005F07BFB012108
:103B30001148FFF7D3FFC82004F07DFC172005F0E3
:103B4000D1FAD0231B06802212045A625A6100F077
:103B500021FB01F0A1FB0BF057FD01AB00221A7015
:103B60005A709A7001980BF0F7FC0BF01DFD10F0E5
:103B70002BFC002003B000BD90D0030001E00370D7
:103B800001300378002B07D0044AD15C03220A409D
:103B9000022AF4D1203BF2E77047C046DD3205101F
:103BA00070B504000D00002A01D1002070BD013A5B
:103BB000831800211970290030F090FA200030F0AD
:103BC00001FB285C43425841C0B2EFE770B50500E5
:103BD0000C1E01D1002070BD06F0FCFD002801DBA9
:103BE000A042F8D3013C2D1900232B702000F2E7EE
:103BF0000CB400B583B004AB04CB0193FFF7E6FF30
:103C000003B008BC02B018470300E03B062B09D8FC
:103C10009B00094AD3589F469D200AE0B82008E03F
:103C2000B82006E0672805D8044B8000C05800E0A3
:103C3000B62070470020FCE7D8820410748304107B
:103C400010B5FFF7E1FF10BD00B587B001236A464C
:103C50001370FFF7D9FF019000230293039300280C
:103C600001D107B000BD6846FDF7E0F8F9E70000B4
:103C700010B50C00084B1B78002B0AD0FFF7C4FFCF
:103C8000002C07D0002805DB7F2803D8034B185CE5
:103C900000E0002010BDC046B8230020F4820410CC
:103CA00070B586B00500140000236A461370FFF754
:103CB000ABFF060001902800FFF7C2FF0290E4135B
:103CC00001231C4021002800FFF7D2FF03900A4B7C
:103CD0001B785BB2002B03D1002E09D106B070BD5A
:103CE000064B1A6850232100280000F085FAF5E7FA
:103CF0006846FDF79BF8F1E7422F0320B03E012014
:103D0000014B01221A707047B8230020014B00229A
:103D10001A707047B8230020704710B50C2005F0CA
:103D2000ECF90C2005F0DEF9002201210C2005F051
:103D3000BFF9D024240680235B01A3620D2005F087
:103D4000DCF90D2005F0CEF9002201210D2005F04F
:103D5000AFF980239B01A362162005F0CEF916204F
:103D600005F0C0F900220121162005F0A1F98023F9
:103D7000DB03A362072005F0C0F9072005F0B2F9C4
:103D800000220121072005F093F98023A3620E2071
:103D900005F0B3F90E2005F0A5F9002201210E204F
:103DA00005F086F98023DB01A3620F2005F0A5F959
:103DB0000F2005F097F9002201210F2005F078F976
:103DC00080231B02A362122005F097F9122005F050
:103DD00089F900220121122005F06AF98023DB0213
:103DE000A362132005F089F9132005F07BF9002266
:103DF0000121132005F05CF980231B03A3621A2024
:103E000005F07BF91B2005F078F910BD10B5D02323
:103E10001B065B681B0350D40023804A12689A4239
:103E200010D07E4A1360002B49D1002200212C20A3
:103E3000FFF736FF00220021E120FFF731FF784B2A
:103E400001221A60D0231B065B685B0345D4002364
:103E5000744A12689A4208D0724A1360002B3ED10D
:103E600000220021E420FFF71BFFD0231B065B6824
:103E70005B043AD400236C4A12689A4246D06A4ADC
:103E80001360002B33D1002200212820FFF708FF08
:103E9000002200215720FFF703FF002200211C20F1
:103EA000FFF7FEFED0231B065B681B032ED4002207
:103EB00000212B20FFF7F4FE28E00123ADE70022CC
:103EC00000212C20FFF7C0FE00220021E120FFF797
:103ED000BBFE534B00221A60B4E70123B8E700226F
:103EE0000021E420FFF7B0FEBFE70123C3E7002273
:103EF00000212820FFF7A8FE002200215720FFF70D
:103F0000A3FE002200211C20FFF79EFED0231B06EB
:103F10005B681B045AD40023444A12689A4208D0B2
:103F2000424A1360002B53D1002200212920FFF7C1
:103F3000B7FED0231B065B68DB044FD400233C4A4A
:103F400012689A4208D03A4A1360002B48D10022E6
:103F500000215220FFF7A4FED0231B065B689B04C0
:103F600044D40023334A12689A4208D0314A13607D
:103F7000002B3DD1002200215120FFF791FED023DC
:103F80001B065B685B0239D400232B4A12689A42F5
:103F900008D0294A1360002B32D100220021502082
:103FA000FFF77EFED0231B065B681B062ED4002382
:103FB000224A12689A4208D0204A1360002B27D167
:103FC000002200214F20FFF76BFE10BD0123A3E765
:103FD000002200212920FFF737FEAAE70123AEE7E0
:103FE000002200215220FFF72FFEB5E70123B9E799
:103FF000002200215120FFF727FEC0E70123C4E77C
:10400000002200215020FFF71FFECBE70123CFE75E
:10401000002200214F20FFF717FED6E7B42300202F
:1040200064310120B0230020AC230020A82300200D
:10403000A4230020A02300209C23002098230020FC
:1040400010B5FFF76AFE10BD10B5FFF7DFFE10BD1B
:104050007047000030B50500002000280DD19142C6
:1040600000DA00BE054B03241800A043044C241AB8
:104070002C60032BF1D80139EFE730BDE82F032086
:104080000000042010B501220021002005F026F9CF
:1040900010BD000070B50D4B00241C57182C03D028
:1040A0000A4B01341C7070BD094D28680100A03115
:1040B000F02212012FF0BAFF2868A3001B195A0141
:1040C0008018A022002107F02FFDECE7B923002083
:1040D0008C1A032010B50400FFF7DCFF094B1B68A6
:1040E000094A002151568A00521852019B1804E0D7
:1040F00001341A7007225A7002332278002AF7D14D
:1041000010BDC0468C1A0320B92300207047000060
:1041100070B5050004221021FFF79CFF04002A68F7
:104120000248210007F0A4FE200070BDF04C0310EF
:1041300070B5060030F046F8400823252D1A0024FB
:1041400003E0202007F030FE0134AC42F9DB300000
:1041500007F05EFE70BD10B5002403E03D2007F0BF
:1041600023FE01344A2CF9DD0A2007F01DFE10BDA4
:1041700010B50400FFF7EFFF2000FFF7D9FFFFF7AE
:10418000EAFF034807F044FEFFF7E5FF10BDC04615
:10419000184D031010B5FFF753FF10BDF0B5C6461C
:1041A00000B505000F0016000024B44219DA0A21F8
:1041B000280006F06DFB0134331B98463031F9546A
:1041C0000A21280006F064FB051E0AD00321200006
:1041D00006F05EFB0029E8D1013F2C234246BB5488
:1041E000E3E7B44205DA331B013B2022FA540134E1
:1041F000F7E780BCB846F0BDF0B5DE4657464E4600
:104200004546E0B5A5B007000091140010002FF05E
:10421000D9FF05000600CF4B1B785BB2002B0EDBED
:10422000282F16D0292F00D169E12A2F00D169E16A
:104230002B2F00D07AE1083507239D436DE1C54B54
:1042400018221A70282F00D157E12C2FE8D100270F
:10425000E8E7C04B00229A5693009B185B01690067
:10426000BD4A5B1807331268D31800221A70270062
:1042700000E001373B78202BFBD0390000E0013112
:104280000B78002B09D0202B07D01A00613AD2B24C
:10429000192AF4D8203B0B70F1E74B1C98460023F9
:1042A0000B70AE4938002FF049FF002805D0AC490B
:1042B00038002FF043FF002817D1FFF7E3FE00235B
:1042C0002370A54B1D68A34B00229A5693009B18A0
:1042D0005B01ED18A3490622280007F02BFC200003
:1042E0002FF070FF0022062365E19F4920002FF088
:1042F00025FF002812D09D4938002FF01FFF00280D
:104300001AD09B4938002FF019FF051E824634D081
:10431000002E00D0EBE0FFF7BDFED0E78E4B186813
:10432000FA221201002107F0FFFB8A4B00221A70CB
:10433000C5E701239C46E0446319434503D942463F
:104340001278202AF5D0434503D943461B78002B29
:1043500007D18848FFF7BEFEFFF79CFEFFF79AFEE5
:10436000ADE72E2B05D143465B78002BF4D0202BF4
:10437000F2D08148FFF7AEFEEEE78048FFF7AAFED5
:10438000FFF788FE10AF7E4B3A0043CB43C243CBCE
:1043900043C243CB43C243CB43C27A4B7A4A9E1AB1
:1043A00001961FF0F7FE00900922532302A98C46C4
:1043B000634419003000FFF7F1FE3800FFF78AFE72
:1043C000724E326808327249380006F0D9F9316805
:1043D0000B784A7812021A438B781B041343C8786F
:1043E000000618430922532302A98C46634419008E
:1043F000FFF7D4FE3800FFF76DFE072102A81FF07B
:10440000EDFE2E00022700E00136062E1EDCF30032
:1044100002AA9B58002BF7D05E49320010A806F084
:10442000AFF9F30002AA94466344994658680830ED
:10443000092253216144FFF7B1FE10A8FFF74AFE9D
:104440004B465B680833ED180137DDE74F4B9B4661
:1044500019680A784B781B0213438A7812041A43AE
:10446000CB781B0613434C4A126890469844FFF7DA
:1044700011FE4A4910AB99463A00180006F080F93F
:104480005B4619680A784B781B0213438A7812043A
:104490001A43CB781B061343019AD0182818092217
:1044A0004F2102AB9C466144FFF778FE4846FFF778
:1044B00011FE3B4B4A4643CB43C243CB43C243CBA3
:1044C00043C203CB03C2009B42469B1A5B1B00D432
:1044D0009A4609224F2102AB9C4661445046FFF7A1
:1044E0005DFE10A8FFF7F6FDFFF7D4FDE7E62D48C7
:1044F000FFF7F0FDFFF7CEFD0DE7002792E6002362
:104500002370DEE6002E00D1DBE6013D65190023B5
:104510002B70D6E62023A3550136AE4201DA4B2E8E
:10452000F8DD0136A61900233370CAE60099380079
:10453000FFF79EFB002800D1C3E67E2800DDC0E621
:104540004B2E00DDBDE660550135651900232B704B
:10455000B7E6C046B92300208C1A0320F86B03107D
:10456000384E0310784F0310444E0310484E03108A
:10457000644E03104C4E0310504E0310684E03104F
:104580007C4E0310C86B051000000010482B032060
:10459000AC4E0310D84E031090230020084F031098
:1045A000304F03105C4F0310A15CE954591C0726DF
:1045B0006E54023301328242F6DB5F22EA545A1C07
:1045C0008721A954023304E05A1CAA180021117053
:1045D00002339F2BF8DD25B0F0BCBB46B246A9469E
:1045E000A046F0BD10B594B000F0BCFF0FF0E2FEA5
:1045F000FFF768FA01E0FFF7B9F911482FF0D4FE90
:104600000028F8D00E482FF057FE0E4B01241C70E6
:104610000D482FF009FE0D4B1C70002300220021D5
:104620000020FFF76DFB00236A461370084B1A60E9
:10463000FA208000FFF70CFDFFF798F9F8E7C04675
:10464000403D01209C2F0320880B0320422F032094
:10465000B03E012010B5D0231B061B68002B03D0F1
:10466000064B1B78002B03D10121FEF7E9F910BDA1
:10467000034B044A0448054904F0FCFE602F032064
:10468000804F031030850410AC4F03107D020000F2
:1046900070B5D0231B061B68002B03D00B4B1B7877
:1046A000002B0CD141430C0001212000FEF7C8F97A
:1046B00005002200002107F037FA280070BD044BE6
:1046C000044A0548054904F0D5FEC046602F032082
:1046D000804F031020850410AC4F031083020000AC
:1046E00010B5D0231B061B68002B03D0064B1B788C
:1046F000002B02D1FEF740F910BD044B044A0548D7
:10470000054904F0B7FEC046602F0320804F031018
:1047100014850410AC4F03108A020000094B5B792A
:10472000002B0ED0A022D205074B0B21D150A02286
:10473000D205054BD3580B221A42F8D1014B002267
:104740005A71704770EA022044040000074B196850
:104750000B794A7912021A438B791B041343C879E7
:10476000000618431F300002000A7047482B032040
:1047700004498A6A3F2313402033034A93718B6AAA
:10478000136070470040054070EA0220F8B51AE057
:104790000133032B12DC1B4A5900C918C9005218F7
:1047A0005269002AF4D017495A00D218D2008A1848
:1047B000506A8A689042EBDC002500E00125002D5C
:1047C00003D1002D1DD00023E3E70E4B9E68013678
:1047D0009E60002412E00B4B62001219D2009B185D
:1047E0005F690521300006F053F87B1E9F41064BA0
:1047F00089000919C9005B18DF710134032CEADD57
:10480000DFE7F8BDC0F802209C1A032010B50C2980
:1048100006D80368054A1340C9020B43036010BD64
:10482000034B044A0448C32104F024FEFF87FFFF22
:10483000EC4F0310988504100C50031000B583B0A2
:1048400001000023019310330193134B019301A83E
:10485000FFF7DCFF019B0C22190091430A0008219D
:104860000A4301920D4A1A400A4301920C4A1A4027
:104870000A4301920B4A1A401143019109210A434C
:104880000192094A1A400A43019208481840084315
:10489000019003B000BDC04610801F0033F8FFFF39
:1048A00033F8BFFF33F89FFF33F81FFF31F81FFFC6
:1048B00010B53F2906D80368054A1340C9030B43C6
:1048C000036010BD034B044A0448B52104F0D2FD37
:1048D000FF7FE0FF68500310808504100C50031028
:1048E00030B583B005000C000920FFF7A7FF019049
:1048F000102302009A4313000192202213430193D4
:104900001C23984310430190232101A8FFF7D0FFF7
:10491000064B01225A71064B1A681032054B1A6079
:104920005D609C60019ADA6003B030BD70EA0220DD
:10493000082400204002005030B583B005000C0070
:104940000A20FFF77BFF019010220300134301931D
:104950002023010099430B00134301932C23984318
:10496000030013430C3A13430193222101A8FFF7DC
:104970009FFF074B01225A71064B1A681032064BF3
:104980001D605A609C60019ADA6003B030BDC04679
:1049900070EA0220082400208002005010B5144B59
:1049A00004221A71002305E0124A59008024640091
:1049B0008C5201331F2BF7DD0E4C22888023DB0045
:1049C00013432380E28F80239B001343E3870A4B2A
:1049D0001B680022DA6658600132DA660748202137
:1049E000FFF77EFF20212000FFF7A6FF10BDC04685
:1049F00070EA0220D814032008240020DCF20220F0
:104A000070B50600154B03221A71802901D84B1E80
:104A10000BE0134B134A1448144904F02BFD5A1CA5
:104A2000134CE55C52001553013B002BF7DA802351
:104A3000DB000B430E4803804A00145A80239B007E
:104A4000234313520B4B1B680022DA665E6001326F
:104A5000DA660131FFF770FF70BDC04670EA0220D0
:104A60007C5003106C8504109C500310030200005E
:104A7000DCF202200824002070B5614B1B78002B6B
:104A800004D15F4B01221A7000225A705C4B1B78D4
:104A9000012B0BD0022B2BD0594B1B78032B2DD085
:104AA000574B1B78042B00D1A6E070BD544A01235C
:104AB000D35601335370524B01229A56032A0FDC0E
:104AC0004F4B51008918C9005B182833187800280B
:104AD00003D14B4B01325A70EDE7FFF75FFFE4E77C
:104AE00002221A7000221A749878FFF757FFDCE749
:104AF000434B03221A7000225A70CDE7404A01232B
:104B0000D356013353703E4B01241C57032C61DCF8
:104B10003B4B62001219D2009B185B69002B03D13A
:104B2000374B01345C70EEE7364A5360364B1978E8
:104B3000012917D0324B62001219D2009B185B6A10
:104B40005A1C0FD0022921D02E4B00221A700821A6
:104B50002B4B62001219D2009B1828331878FFF7EC
:104B60004FFFA2E7264B62001219D2009B189A69E8
:104B7000254B9B689A42E7D02248022303700830F5
:104B80002249702206F0D6FF7821E1E71D4A043160
:104B9000117093601A4A611C4B005B18DB00D3183C
:104BA0009868936898420FDA0130164DE860052145
:104BB00005F06EFE164B49012800103059182022CE
:104BC00006F0B8FF3021C3E70E4B01225242DA60F3
:104BD0001021BDE704221A701B7C002B00D15FE777
:104BE000084A1370064C63685360A0780821FFF7E9
:104BF00007FF0023237458E7014B05221A7054E77E
:104C0000C0F80220DCF20220941903209819032036
:104C10009C1A0320F0B5C64600B5BF4B1B68DA6A84
:104C2000BE4B1968EFF3108072B60B685C426341AB
:104C3000DCB2002BF9D1BFF35F8FB84B586053063D
:104C400027D4930600D4DDE0B34B1C68636B5B058F
:104C50001DD5636EB24B01221A71B24A00219172C6
:104C60001B68B14D6B60FFF771FD0002030A6B70AA
:104C7000030CAB70000EE870AC4B1B78012B00D11D
:104C800082E0022B00D18AE0A74B00221A70236D2C
:104C9000AEE0FFF743FDA04B1B685B6DA44B1B7898
:104CA000012B0ED09E4B00221A719C4B1A685B6838
:104CB000BFF35F8F0021116083F3108880BCB8467A
:104CC000F0BD974B1B79002BECD0964B1B78012B3A
:104CD00005D0934B00221A71FFF7CEFEE2E7914B0D
:104CE000012018560600914B1B78012B3AD08D4BB2
:104CF00042001218D2009B1829331A780132D2B21E
:104D00001A70102AE5D9874B42001118C9005918AA
:104D100000244C610B0028331C70FFF737FDD8E7E7
:104D2000711C824A73009C469C19E40014194B00C4
:104D300098465F18FF00D21914341432A8CAA8C4C8
:104D4000A8CAA8C4774A33006344DB00D31844469A
:104D50006518ED0052191433143270CA70C370CA4A
:104D600070C30E00022EDBDD704B5A7B013A5A7382
:104D70000022DA659968013199606A4BDA65702121
:104D80005A5401385870A4E767480370674B9B6812
:104D9000836068490C30122206F0CCFE77E7624B44
:104DA00005221A705F4A51699960D0681369984268
:104DB00013DA01305C4DE860052105F069FD5E4BBA
:104DC000002018565D4A8B001B18DB0028001030AD
:104DD000D118082206F0AEFE59E7534B0122524289
:104DE000DA6054E74F4A591C91724F4AD35C2361F1
:104DF000636F102B00D158E74A4B9B7A5BB21F2B95
:104E0000F0DD52E7530718D5434B1B681B691A05A1
:104E100007D5434A02211171424A0021117253728F
:104E200043E740490A7A497A8A4200D33DE73D493F
:104E3000501C08723C498B5437E7920500D434E784
:104E4000354B1B681B6E3A4B1B78012B0ED0022B87
:104E500000D02AE7324B1B79012B00D1CAE0022B8C
:104E600000D1CCE02E4B00221A711EE72C4B1B798F
:104E7000042B08D0032B00D1B6E0294B00221A7175
:104E8000FFF7FAFD11E7A022D20591239B00D3582A
:104E9000254A9B1A202BF0D11378012B54D0052BD7
:104EA000EBD1204A0124145713336343D318293319
:104EB000002119701378012BDFD11C4B1B78022BBA
:104EC000DBD11F4B996A1300601C182242439B18C8
:104ED0005960154A91689960D5686B1CCDD0114B0B
:104EE0009B689D42C9DD0F4BDB689D42C5DA0521F9
:104EF000280005F0CDFC114A8B001B19DB00D018EF
:104F00001049082206F016FE064B182262439B1831
:104F10005D62FFF73BFCB0E7082400200C3C012059
:104F200070EA0220C0F80220DCF20220941903206B
:104F3000AF2F0320B0070320522F03209C1A032019
:104F400000400540ECF20220614B1B78022B15D08B
:104F5000012B92D15F4B1B78012B8ED15C4B012032
:104F600018565D4A946A421C18214A439A185460A4
:104F70005A4A926841435B189A617EE75468544BE1
:104F80005C60544B1B78012B03D0514B04221A74E4
:104F900073E715682D0AFFF7D9FB854203D04C4B08
:104FA00007221A7469E74B4B597B032918D8484AE2
:104FB000907818234B43D21854612832107045481A
:104FC000C3185C611833464A70CA70C314681C6009
:104FD00092889A80013141738368013383604CE782
:104FE0003B4B03221A7448E7A022D205A0239B0062
:104FF000D35842E7384B9A6A354B1A6032E7344B44
:105000001A7A5B7A9A4200D02CE7364B1D68334BF4
:105010005B689D4200D025E72F4B9A6A2C4B5A6063
:105020002E4B1B78022B0FD0062B29D0294A127841
:10503000012A00D016E7042B45D0072B00D011E73A
:10504000244B03221A730DE7224B1B78012B00D04F
:1050500008E725482549702206F06CFD1C4BFF220D
:10506000DA7200E00134032C00DDFBE6194B182254
:1050700062439B185B699D42F4D1154BDC72F1E7EA
:10508000144B02221A70154BD868431C00D1E9E674
:10509000124B9A680E4BDA605B690133984200D07C
:1050A000E0E60B4B9B69984200DBDBE6084B58615E
:1050B000052105F0EDFB0E4B490158180D49202242
:1050C00006F038FDCEE6034B01321A73CAE6C0463D
:1050D000C0F802209419032000400540DCF20220B1
:1050E000E8F2022070EA022098190320E4F202207C
:1050F0009C1A0320ECF2022010B5002B02DB0260A8
:10510000436010BD024B034A03483F2104F0B2F94B
:10511000D850031040850410F450031070B582B0CD
:10512000060014001D00FA229200002306980021B8
:1051300006F088FB02000B0012196B41002B09DB03
:105140006846FFF7D9FF009A019B32607360300018
:1051500002B070BD01225242004BF1E7FFFFFF7F1A
:1051600010B582B0040003F0F7F902000B006846A6
:10517000FFF7C2FF009A019B22606360200002B02B
:1051800010BD30B585B004000D0002A8FFF7E8FFA0
:10519000029A039B00952000FFF7C0FF200005B096
:1051A00030BD000030B583B02B4B1A68EFF310818F
:1051B00072B6136858424341DCB2002BF9D1BFF3F9
:1051C0005F8F254B5960254B1B79002B21D0244B39
:1051D0001B685A6B214A002111716C3380229201A5
:1051E000134302221A6014E0130020229A7017E081
:1051F0000132032A0BDC1B4950008018C300CB1876
:10520000283318788B789842F2D10125F0E7002DE9
:1052100009D0144A93780133DBB29370602BE3D04A
:1052200022000025E5E70F4B00241C70FFF724FC4B
:10523000094B1A685B68BFF35F8F146083F31088B3
:105240000A216846FFF79DFF009A019B012003F0A9
:1052500033FA03B030BDC0460C3C012070EA022096
:1052600008240020C0F8022010B5084808220021B8
:1052700006F05AFC06487422002106F055FC054849
:105280007422002106F050FC10BDC04670EA0220D6
:10529000C0F802209419032010B5174B1B78174B48
:1052A0001B78174803F062FC1648174902F018FBF8
:1052B00003210E2003F0E4FE03210F2003F0E0FEA3
:1052C000002201210E2003F0F3FE002201210F2015
:1052D00003F0EEFE0D49182003F0CCFA0C49012032
:1052E00003F0A2F9C021012003F01EFB01210120DF
:1052F00003F0A6FA10BDC0460834051004340510AA
:105300000C3C01200824002000350C00154C001036
:10531000A5510010F0B5CE46474680B583B0814612
:1053200088461700354B1A68EFF3108172B6136880
:1053300058424341DCB2002BF9D1BFF35F8F2F4BB2
:105340005960012003F02CFAFFF78EFF2C4B012649
:105350001E702C4D2C4928001830122206F0EAFB52
:105360002A4B9A6A2E706A612E736E734B46AB732A
:105370004346EB732F74AE60254B202199705A6120
:10538000012252429A600DE0214A63001B19DB00A2
:10539000D318012149425962013463001B19DB0013
:1053A000D2189160032CEFDD1A4C23680025DD66CE
:1053B00000220021200002F0BFFA23689022920010
:1053C0001A630122DA660D4B1A685B68BFF35F8FC0
:1053D000156083F310880A216846FFF7D2FE009A11
:1053E000019B012003F068F90121182003F028FA3D
:1053F00003B0C0BCB946B046F0BDC0460C3C01206D
:10540000AF2F032094190320B0070320004005406C
:10541000C0F802200824002070B51F4B1A68EFF373
:10542000108172B61368002BFCD0BFF35F8F1A4D4A
:105430006960012003F0B4F9FFF716FF174B01264E
:105440001E70174B02221A70164B033A5A61DA602B
:105450001A61FFF78DF9144B9A79144C0121200041
:1054600002F06AFA21680022CA6680239B010B437E
:10547000802119602368E531FF311963DE662968F0
:105480006B68BFF35F8F0A6083F3108801211820D7
:1054900003F0D6F970BDC0460C3C012094190320DE
:1054A000AF2F0320C0F8022070EA02200824002059
:1054B00010B5234B1A68EFF3108172B61368002BF6
:1054C000FCD0BFF35F8F1E4B59601E4B1B78022B25
:1054D0000AD000201A4B1A685B68BFF35F8F002167
:1054E000116083F3108810BD174B1B79002B25D159
:1054F000164B9B6A164A12689B1A164A127B012A9F
:1055000004D0154A934203D80020E3E7134AF9E791
:10551000FFF72EF90F4B1B78012B0AD0104B1B689D
:105520000022DA66084A92799A600122DA6601203E
:10553000D0E7084B00221A739A60EFE70020C9E712
:105540000C3C0120AF2F032070EA022000400540F0
:10555000C0F802209419032040420F00A0860100E9
:105560000824002010B5154B1A68EFF3108172B6AD
:105570001368002BFCD0BFF35F8F104B5960104BAA
:105580001B78002B09D10D4B1A685B68BFF35F8F46
:105590000021116083F3108810BDFFF7BFF80120D0
:1055A00003F0FEF80021182003F04AF9054B1A68B1
:1055B0000023D366024A1370E5E7C0460C3C012085
:1055C000AF2F03200824002010B5154B1A68EFF305
:1055D000108172B613685C426341DCB2002BF9D1D2
:1055E000BFF35F8F0E4B59600E4B1B78022B10D010
:1055F000012B12D10C49702206F09CFA084B1A6854
:105600005B68BFF35F8F0021116083F31088200077
:1056100010BD064B0B241C57ECE701246442E9E75C
:105620000C3C0120AF2F032098190320C0F8022062
:10563000104B1968EFF3108272B60B68002BFCD088
:10564000BFF35F8F0B4B5A600B4B0221197019731C
:105650000A4B1B78012B08D0064B1B68BFF35F8FEA
:105660000021196082F31088704703498B68013369
:105670008B60F1E70C3C012094190320AF2F03202D
:1056800010B5104B1A68EFF3108172B61368002B37
:10569000FCD0BFF35F8F0B4B59600B4B1B78022B79
:1056A0000BD10A4B1861074B1A685B68BFF35F8F19
:1056B0000021116083F3108810BD044B5862FFF77E
:1056C00065F8F0E70C3C0120AF2F0320C0F8022062
:1056D00070B50400404B1A68EFF3108172B613687E
:1056E00058424341D8B2002BF9D1BFF35F8F3A4BF8
:1056F00059603A4B1B78012B0CD0022B3BD0200079
:10570000354B1A685B68BFF35F8F0021116083F32C
:10571000108870BD324B9B68A34205DD0134221D09
:105720002F4BDA602000EBE72E4B9E6A012500E04C
:105730000135032DF3DC2A4B6A005219D2009B1865
:105740005B69002BF4D0264B691C4A005218D2002A
:105750009B185B68F31A244A9342E9D9204B6A00EC
:105760005219D2009B181900283100220A705A6180
:10577000FFF70CF8DCE71A4B5B69A34204DD601C01
:10578000031D174A9361BBE7164B9B6A144A526884
:105790009B1A154A93421DD9144B00221A7005001A
:1057A0000AE0134B8A005219D2009B180022DA71CA
:1057B00001310429F5DD0135032D06DC0D4B1B7885
:1057C0005BB2AB42F7D00100F3E7084B00221A703E
:1057D0002000D5E72000D3E70C3C0120AF2F0320A9
:1057E000C0F8022000400540A0860100962F03204B
:1057F0009C1A0320522F032010B502F0ADFEFA22AE
:105800009200002305F0AAF883001818C300181AA4
:1058100010BD10B502F0A0FEFA229200002305F0A0
:105820009DF810BD10B502F006FE10BD70470000D7
:105830008000044B1B681B581B021B0A024A10689D
:10584000C018704740F9022090230020D0231B0687
:10585000D861704701238340002903D0D02212066B
:1058600053617047D02212069361FAE710B5040025
:105870001022002106F058F980235B022360F823F0
:105880005B0263608023DB02A360C0231B03A36071
:10589000200010BD000C704780B2704770B5050045
:1058A0000C00FFF7E3FF22000B320D346B68044954
:1058B0000B40D2011343240323436B60280070BDC7
:1058C0007F00FEFF002904D0036810221343036009
:1058D0007047036810229343F9E7C046002904D0BB
:1058E0000368202213430360704703682022934318
:1058F000F9E7C046002A07D18001A023DB059C46BA
:1059000060440B68036170478001A023DB059C465F
:1059100060440B68C360F6E7002A06D18001A0232B
:10592000DB059C466044016070478001A023DB05D5
:105930009C466044C163F7E770B504AC20CC247882
:105940008001A026F605B44660440360426085608D
:10595000002C02D10B68036170BD0B68C360FBE7CC
:105960008001A023DB059C4660444160C261704712
:1059700001238340A021C905054A8B508301A02241
:10598000D20594466344DB68DB01F7D47047C04618
:10599000440400008301A022D205944663441B699D
:1059A000DB01F7D47047C0467047C04603681F222A
:1059B00093430A40134303607047C04610B5036821
:1059C000064C23404901F824A40021400B439202D5
:1059D000F821C9010A401343036010BD1F80FFFF77
:1059E0000368054A1340002904D080225202134361
:1059F000036070470022FAE7FFFFFEFFF820C001B6
:105A00007047C04613680A318900401843607047E8
:105A100003680B6043684B6083688B60C368CB602E
:105A200003690B61C36A4B61036B8B617047C046AE
:105A30000B6803604B6843608B688360CB68C3600E
:105A40000B6903614B69C3628B6903637047C0468E
:105A5000034B536001235381138101207047C046DB
:105A6000A4FC0220F0B5D6464F464646C0B52A4BA8
:105A70001B78A7293BDCDA00D21A1301274E9B1AA8
:105A80005B02F318264A1568002D3ED0254A12689D
:105A90009246002A39D08F00BC468C446746BF012D
:105AA000BC4663449846204BA0249C46D2235B020C
:105AB000994600226400B1440FE057469B00DB5931
:105AC000B34206D34B4504D267469B5C5B00DB5B6D
:105AD000038001320230A24204D0AB5CCB1AECD579
